:0A0000000C9439000C9400000C94DD
:10000A0000000C9400000C9400000C9400000C9466
:10001A0000000C9400000C9400000C9400000C9456
:10002A0000000C9400000C9400000C9400000C9446
:10003A0000000C9400000C9400000C9400000C9436
:10004A0000000C9400000C94000008004E49434F35
:10005A00004C41484152410080C001000500540053
:10006A000200600162000000F894EE27ECBBF1E0A8
:10007A00FBBFEBBFE5BF8DE0A2E0BB27ED938A95FE
:10008A00E9F780E094E0A0E6ED930197E9F7E4E66A
:10009A00F0E085919591009761F0A591B591059051
:1000AA001590BF01F00105900D920197E1F7FB0150
:1000BA00F0CFEFE5EDBFE4E0EEBFC0E6D1E00C948F
:1000CA006600E0E0EABBEBBBE7BBE8BBE4BBE5BB31
:1000DA00E1BBE2BBE3BFE2BFECBFEFBDEEBDEDBDEE
:1000EA00ECBDE7BDE6BDEBBDEABDE9BDE8BDE2BDDD
:1000FA00E5BDE4BDE3BDE9BFE5BFE4BFEAB9E0E8B9
:10010A00E8B9E0E0E0BFE6B9EDB9E6BFA0E10E94D8
:10011A004E01E8E05E2EE0E05E16C0F00E94FD00AF
:10012A005A92A0E00E94ED00A6E5B0E00E942A01E2
:10013A005A92A1E00E94ED00ABE5B0E00E942A01CC
:10014A00A8ECB0E00E9483015A94E5CFE2CFFFCF3A
:10015A00FFE0FA95F1F70895A7B3AF70A7BBC19A6C
:10016A00C098F6DFC29AF4DFA6B3C298F1DFC29A4A
:10017A00EFDFC298A7FDF5CF0895A07FAB2BA8BBF0
:10018A00C29A0E94AD00C2980E94AD000895AA9337
:10019A00C198A7B3A76FA7BBB8B3BF70A881EDDF9B
:1001AA00A881A295EADFC19A0C947901C29A0E94A9
:1001BA00AD00E6B3C2980E94AD00E07F08950E94A8
:1001CA00AD00F4DFAE2FF2DFC198E295EA2B089575
:1001DA00AA930E94B100E881F0E0E05AFE4FE08164
:1001EA00A981AE0F0E94CC0049807880229608959A
:1001FA000E94B100A2E00E94CC000E94B100ACE0D3
:10020A000E94CC000E94B100A1E00E94CC00E0E074
:10021A007E2E4E2E0895AA93EF93FF93A881689499
:10022A00AA3019F0E894461430F07394E0E0EA93A7
:10023A00A72DCEDF36F043948FDFC09AA8810E94A3
:10024A00CC00FF91EF910C947901BA93AA931A9377
:10025A00E981FA813196E983FA833197E4911E2F75
:10026A00E03019F0A12FD7DFF3CF18812396089534
:10027A00AA27BB271197F1F70895AA93C198A7B3A4
:10028A00A76FA7BBB8B3BF70A8810E94C200C19A6A
:10029A002BC0AA93C298C0986880E881E058E0937E
:1002AA006201E881E054E093630120D01FD01ED0A0
:1002BA00DFDFA0E2E2DFDCDFA8E21CD0A4E01AD094
:1002CA00A5E818D0A7B3AF70A7BBC19A0E94E400F3
:1002DA00E53011F0E0E008C00E94B100A6E00E94FB
:1002EA00CC000E94FD00E1E0219608950E943D01A4
:1002FA00A0E3C3CF0E94CC000C943D01109639F0C4
:10030A0080ED97E00197F1F7A8951197C9F708953D
:00000001FF
